:100000000C943A000C9457000C9457000C94570031
:100010000C9470000C9457000C9457000C945700EB
:100020000C9457000C9457000C9457000C945900F2
:100030000C9457000C9457000C9457000C945700E4
:100040000C9457000C9457000C9464010C945700C6
:100050000C9457000C9457000C9457000C945700C4
:100060000C9457000C9457006364696E6F7073753D
:1000700078585B0011241FBECFEFD8E0DEBFCDBFA4
:1000800011E0A0E0B1E0E2E7F6E102C005900D92D8
:10009000AC36B107D9F721E0ACE6B1E001C01D9262
:1000A000AC39B207E1F70E9493020C94370B0C9421
:1000B00000001F920F920FB60F9211248F939F93FF
:1000C00080916C0190916D01019690936D018093E8
:1000D0006C019F918F910F900FBE0F901F901895FC
:1000E0001F920F920FB60F9211248F939F9386B198
:1000F0008093900180919001807180939B01809109
:100100009001807280937F0180918F0181110DC0D9
:1001100080919B01882311F081E02EC080917F01A6
:10012000882309F441C082E034C080918F0181307E
:1001300069F480919B01811103C0109291012BC041
:1001400080917F01882381F183E016C080918F0127
:10015000823069F480919B01882311F083E019C0FB
:1001600080917F01811120C01092910107C0809180
:100170009B01811109C082E08093910180917D01F2
:1001800090917E0101960CC080917F0181110CC07D
:1001900081E08093910180917D0190917E01019792
:1001A00090937E0180937D0180917D0190917E01ED
:1001B0001816190634F081E090E090937E01809348
:1001C0007D0180917D0190917E018436910534F00E
:1001D00083E690E090937E0180937D018091910170
:1001E00080938F019F918F910F900FBE0F901F9062
:1001F0001895CF93DF93CDB7DEB7AE970FB6F894CF
:10020000DEBF0FBECDBF81E1E2E0F1E0DE0111967D
:1002100001900D928A95E1F78EE0E3E1F1E0DE01D5
:10022000919601900D928A95E1F78FE0E1E2F1E07D
:10023000DE01529601900D928A95E1F781E00E94CD
:10024000E701CE0101960E945C0260E081E00E941D
:10025000FB01CE0181960E945C022FEF87EA91E6B6
:10026000215080409040E1F700C0000081E00E94F2
:10027000E701CE0142960E945C02AE960FB6F8945A
:10028000DEBF0FBECDBFDF91CF910895E1E8F0E072
:10029000808188608083AFE6B0E08C918D7F8C9305
:1002A00080ED97E090938900809388008081826040
:1002B000808308955098519A529A5A98259A3B9A59
:1002C00088B1806388B908951F920F920FB60F927C
:1002D00011242F933F938F939F93EF93FF9320913C
:1002E000C6002034A9F481E08093710110927A0154
:1002F000109273011092720180E3809392018093B7
:10030000930180939401809395011092960119C0F6
:100310002432B9F4109271018091720190917301AD
:10032000892B21F081E080937A0108C080917201CD
:1003300090917301892B11F410927A0181E08093DE
:100340007A018091710130ED320F813091F43A30B1
:1003500080F4E0917201F0917301EE56FE4F20831C
:100360008091720190917301019690937301809333
:1003700072013A30A8F0243299F0203489F01092BA
:10038000710110927A01109273011092720180E350
:1003900080939201809393018093940180939501BF
:1003A000FF91EF919F918F913F912F910F900FBEF1
:1003B0000F901F9018959BB19F709BB99BB1807F48
:1003C000892B8BB92998299A299A29980895CF932E
:1003D000C82F289890E00E94DB018C2F8295807FA7
:1003E00090E00E94DB018FE39FE10197F1F700C0ED
:1003F0000000CF910895813011F090E001C090E4A9
:1004000080E8860F890F0C94E7018AB1806F8AB962
:1004100084B1836084B98FEF99EF0197F1F700C041
:10042000000080E390E00E94DB018FE19EE40197F1
:10043000F1F700C0000080E390E00E94DB018FED47
:1004400091E00197F1F700C0000080E390E00E9486
:10045000DB0180E290E00E94DB018FED9EE20197DC
:10046000F1F700C0000088E20E94E7018FE39FE1FE
:100470000197F1F700C000008FE00E94E7018FE3D1
:100480009FE10197F1F700C0000081E00C94E701C3
:10049000CF93C82F289A90E00E94DB018C2F829581
:1004A000807F90E00E94DB018FE39FE10197F1F7ED
:1004B00000C00000CF910895CF93DF93EC018991A4
:1004C000882319F00E944802FACFDF91CF91089556
:1004D000E8E6F0E0808182608083ECE6F0E08081F5
:1004E000806180838081806280830895E1ECF0E008
:1004F00080818861808386E08093C20087E690E0F7
:100500009093C5008093C40008958091C00087FF38
:10051000FCCF8091C60008959091C00095FFFCCF5C
:100520008093C6000895CF93DF93CDB7DEB7A89729
:100530000FB6F894DEBF0FBECDBF0E94050288EC57
:1005400090E00E94D30990E09C01215031092336AC
:10055000310510F088E290E090937E0180937D0158
:100560008091C10080688093C1000E945A010E945E
:10057000760278940E94F9000E9446010E94680267
:1005800086B18093900180919001807180939B014E
:1005900080919001807280937F0180917F01811111
:1005A00007C080919B01811103C010928F0117C079
:1005B00080917F01811106C080919B01882311F0F9
:1005C00081E00BC080917F01882331F080919B01F5
:1005D000811102C082E001C083E080938F0180918D
:1005E0008F018093910138E7232E31E0332E40E3D1
:1005F000A42E41E0B42E00E811E054E8C52E5CEBD7
:10060000D52EE12CF12C9FE0992E2BE3622E21E0D8
:10061000722E80917A01813009F057C08091920149
:10062000992787FD9095C0979093790180937801E1
:1006300080919301992787FD9095C09790937701BA
:100640008093760180919401992787FD9095C097BA
:10065000909375018093740169E081E00E94FB0131
:10066000A4E7B1E0BF93AF93A6E7B1E0BF93AF9328
:100670003F922F92BF92AF92A2E9B1E0BF93AF93A6
:100680000E943305409174015091750120917601CB
:100690003091770180917801909179015F934F9328
:1006A0003F932F939F938F93BF92AF921F929F92EE
:1006B0001F930F930E94030580E891E00E945C0263
:1006C0000FB6F894DEBF0FBECDBF20917B013091F5
:1006D0007C0180917D0190917E012817390779F185
:1006E00080917D0190917E019F938F937F926F9275
:1006F0001F929F921F930F930E94030567E080E073
:100700000E94FB0180E891E00E945C0280917D01E3
:1007100090917E0190937C0180937B0160917B019D
:1007200070917C01709301016093000188EC90E06E
:100730000E94DB090FB6F894DEBF0FBECDBF83B1B8
:10074000887083B981110AC010926D0110926C01FA
:100750002D9A80916F00826080936F0083B18071C9
:1007600083B9811156CF2D9880916F008D7F809332
:100770006F0020916C0130916D0140E050E0C701A5
:10078000B6010E94C2044901C90164E670E00E94FA
:10079000AE046CA3572E6AE070E00E94AE04662E91
:1007A000782E81E098A77FA30E94E70180917D01C8
:1007B00090917E019F938F938BE391E09F938F9312
:1007C0001F928FE0482E4F921F930F930E940305B4
:1007D00067E080E00E94FB0180E891E00E945C02FB
:1007E00080916D018F9380916C018F9386E491E0ED
:1007F0009F938F931F924F929E012F5F3F4F3F9386
:100800002F932DA33EA30E94030560E080E00E9489
:10081000FB012DA13EA1C9010E945C0260E081E0C4
:100820000E94FB0158A55F937F927FA17F936F92F7
:100830005F922CA12F938BE491E09F938F931F9253
:100840004F922E0180E1480E511C5F924F920E9400
:100850000305C2010E945C0280E48F8F8CA1805D41
:1008600088A380E3860D89A380E3870D8AA384E2B1
:100870008BA32E019FE1490E511C3E01A4E26A0E9A
:10088000711C0FB6F894DEBF0FBECDBFD2018D91A3
:100890002D010E948C0246145704C1F7C4016AE07E
:1008A00070E00E94AE0480910001909101018617D2
:1008B000970708F0A8CE6AE080E00E94FB0185E57A
:1008C00091E00E945C026CE081E00E94FB018CE5FB
:1008D00091E00E945C0284E690E0439AEFE3FFE13E
:1008E0003197F1F700C000004398AFE3BFE11197E3
:1008F000F1F700C000000197009779F7BFEFEBE731
:10090000F2E9B150E040F040E1F700C000006AE0D9
:1009100080E00E94FB0180917D0190917E019F9378
:100920008F938EE391E09F938F931F928FE08F932D
:100930001F930F930E94030580E891E00E945C02E0
:100940006AE081E00E94FB0181E691E00E945C0286
:100950000FB6F894DEBF0FBECDBF55CEAA1BBB1B92
:1009600051E107C0AA1FBB1FA617B70710F0A61BAF
:10097000B70B881F991F5A95A9F780959095BC01D0
:10098000CD010895052E97FB1EF400940E94D90412
:1009900057FD07D00E94E10407FC03D04EF40C94ED
:1009A000D90450954095309521953F4F4F4F5F4F5B
:1009B000089590958095709561957F4F8F4F9F4FCB
:1009C0000895A1E21A2EAA1BBB1BFD010DC0AA1F90
:1009D000BB1FEE1FFF1FA217B307E407F50720F0A8
:1009E000A21BB30BE40BF50B661F771F881F991F23
:1009F0001A9469F760957095809590959B01AC016C
:100A0000BD01CF010895AEE0B0E0E9E0F5E00C945F
:100A10000E0B0D891E898F89988D26E02C831A83F1
:100A2000098397FF02C080E090E801979E838D8341
:100A3000AE01455E5F4F698D7A8DCE0101960E94B1
:100A40004C054D815E8157FD0AC02F8138854217C4
:100A500053070CF49A01F801E20FF31F10822E964F
:100A6000E4E00C942A0BAEE0B0E0E9E3F5E00C948E
:100A7000100B85E08C838B899C899A838983AE01D6
:100A8000495E5F4F6D897E89CE0101960E949C0868
:100A90002E96E2E00C942C0BACE0B0E0E2E5F5E041
:100AA0000C94000B7C016B018A01FC0117821682F9
:100AB000838181FFBDC1CE0101964C01F701938175
:100AC000F60193FD859193FF81916F01882309F4CD
:100AD000ABC1853239F493FD859193FF81916F010C
:100AE000853229F4B70190E00E94540AE7CF512CD7
:100AF000312C20E02032A0F48B3269F030F48032C7
:100B000059F0833269F420612CC08D3239F0803382
:100B100039F4216026C02260246023C0286021C0EF
:100B200027FD27C030ED380F3A3078F426FF06C095
:100B3000FAE05F9E300D1124532E13C08AE0389ED8
:100B4000300D1124332E20620CC08E3221F426FD8C
:100B50006BC1206406C08C3611F4206802C0883650
:100B600041F4F60193FD859193FF81916F0181110D
:100B7000C1CF982F9F7D9554933028F40C5F1F4F61
:100B8000FFE3F9830DC0833631F0833771F083358D
:100B900009F05BC022C0F801808189830E5F1F4F7E
:100BA00044244394512C540115C03801F2E06F0ED7
:100BB000711CF801A080B18026FF03C0652D70E094
:100BC00002C06FEF7FEFC5012C870E940B0A2C013A
:100BD00083012C852F77222E17C03801F2E06F0E8B
:100BE000711CF801A080B18026FF03C0652D70E064
:100BF00002C06FEF7FEFC5012C870E94000A2C0115
:100C00002C852068222E830123FC1BC0832D90E0BD
:100C100048165906B0F4B70180E290E00E94540AE9
:100C20003A94F4CFF50127FC859127FE81915F016D
:100C3000B70190E00E94540A31103A94F1E04F1A43
:100C400051084114510471F7E5C0843611F089361A
:100C500039F5F80127FF07C0608171818281938196
:100C60000C5F1F4F08C060817181882777FD8095D8
:100C7000982F0E5F1F4F2F76B22E97FF09C09095C9
:100C80008095709561957F4F8F4F9F4F2068B22E52
:100C90002AE030E0A4010E949F0AA82EA81844C0B0
:100CA000853729F42F7EB22E2AE030E025C0F22FBE
:100CB000F97FBF2E8F36C1F018F4883579F0B4C0B3
:100CC000803719F0883721F0AFC02F2F2061B22E66
:100CD000B4FE0DC08B2D8460B82E09C024FF0AC05D
:100CE0009F2F9660B92E06C028E030E005C020E1B5
:100CF00030E002C020E132E0F801B7FE07C06081B9
:100D00007181828193810C5F1F4F06C06081718168
:100D100080E090E00E5F1F4FA4010E949F0AA82E62
:100D2000A818FB2DFF77BF2EB6FE0BC02B2D2E7FF4
:100D3000A51450F4B4FE0AC0B2FC08C02B2D2E7EC0
:100D400005C07A2C2B2D03C07A2C01C0752C24FFF2
:100D50000DC0FE01EA0DF11D8081803311F4297E62
:100D600009C022FF06C07394739404C0822F867852
:100D700009F0739423FD13C020FF06C05A2C73148E
:100D800018F4530C5718732C731468F4B70180E2ED
:100D900090E02C870E94540A73942C85F5CF73142D
:100DA00010F4371801C0312C24FF12C0B70180E3C2
:100DB00090E02C870E94540A2C8522FF17C021FF47
:100DC00003C088E590E002C088E790E0B7010CC05E
:100DD000822F867859F021FD02C080E201C08BE2AB
:100DE00027FD8DE2B70190E00E94540AA51438F463
:100DF000B70180E390E00E94540A5A94F7CFAA9476
:100E0000F401EA0DF11D8081B70190E00E94540ABF
:100E1000A110F5CF332009F451CEB70180E290E064
:100E20000E94540A3A94F6CFF7018681978102C056
:100E30008FEF9FEF2C96E2E10C941C0B20FD09C074
:100E4000FC0123FD05C022FF02C07383628351832E
:100E50004083089544FD10C046FD10C0DB01FC0135
:100E6000AA0FBB1FEE1FFF1F1094D1F76A0F7B1F45
:100E70008E1F9F1F31E003C033E001C034E0660FD6
:100E8000771F881F991F3150D1F7620F711D811D87
:100E9000911D08950F931F93CF93DF938C01C80189
:100EA0000E94160AEC0197FD08C00E94ED09892BEB
:100EB000B1F7B801CE010E94860ACE01DF91CF9131
:100EC0001F910F9108958F929F92AF92CF92DF92D0
:100ED000EF92FF920F931F93CF93DF93EC01A62E17
:100EE0004A01022F0E94160AAC0155274B325105C8
:100EF00021F04D32510551F40068AA9411F480E0BC
:100F000067C0CE010E94160A97FDF9CF102F1D7FF2
:100F1000302F307301F58033F1F4FF24FA94FA0C8A
:100F200009F442C0CE010E94160A97FD3DC0382F39
:100F30003F7D383551F41264AA94AA94A9F1CE01E8
:100F40000E94160A97FF07C02FC006FF02C012605A
:100F500001C01261AF2CC12CD12C760120ED280FDD
:100F6000283080F014FF04C0BE010E94860A19C018
:100F70002A3040F016FFF8CF2F7D3FEE320F36308B
:100F800098F72750412FC701B6010E942A076B012D
:100F90007C011260AA9459F0CE010E94160A97FFB4
:100FA000DDCF11FD04C0ABCFC12CD12C760117FFD2
:100FB00008C0F094E094D094C094C11CD11CE11CF2
:100FC000F11C212FB701A601C4010E941E0781E078
:100FD000DF91CF911F910F91FF90EF90DF90CF9015
:100FE000AF909F908F900895A1E2B0E0EAEFF7E014
:100FF0000C94050B5C017A018E010F5F1F4F680195
:1010000080E2D8011D928A95E9F7F501738040E0EE
:1010100050E0812CB0E0912C81E090E0F90173FC6C
:10102000A59173FEA1918F017A2F9F01A11103C099
:1010300080E090E07DC0AE3519F44115510559F1BD
:10104000E92DF0E0E417F5073CF4AD3569F1AD3278
:1010500019F4BB2319F103C0B11101C08A2EE72F87
:10106000E695E695E69586010E0F111DF801A72F6E
:10107000A7708C0102C0000F111FAA95E2F7D801DA
:10108000B081BA2BB083781559F0781510F47F5FD2
:10109000E6CF7150E4CF9924939403C0B1E001C02E
:1010A000B0E04F5F5F4FBACFBB2319F08E818062F3
:1010B0008E83911003C09924939415C0F601CE013C
:1010C0008196208120952193E817F907D1F7F3CF76
:1010D000E114F10429F0D7018C93F70131967F01D7
:1010E000615001F1912CC50169A30E94160A69A102
:1010F00097FD16C0282F269526952695F601E20F16
:10110000F11D208130E0AC014770552702C03595B4
:1011100027954A95E2F720FDDBCFB5010E94860AAC
:10112000911086CFE114F10411F0D7011C92C8018F
:10113000A196EDE00C94210B4F925F927F928F92DB
:101140009F92AF92BF92CF92DF92EF92FF920F9356
:101150001F93CF93DF931F92CDB7DEB78C012B0186
:101160007A01FC0117821682A12CF801D380F201CA
:10117000D3FC8591D3FE8191382F2F01882309F468
:10118000FCC090E039830E94ED093981892B21F060
:10119000C8010E944A07E9CF353241F4F201D3FC7D
:1011A0003591D3FE31912F01353269F4C80139836D
:1011B0000E94160A398197FDDEC03817B1F2B801D6
:1011C0000E94860ADAC03A3241F4D3FC3591D3FE4C
:1011D00031912F01BB24B39401C0B12C712C20EDAF
:1011E000230F2A3090F4FB2DF260BF2E672D70E0A4
:1011F00080E090E040E20E942A07762EF201D3FCC4
:101200003591D3FE31912F01EACFB1FE03C07110A9
:1012100003C0B3C077247A94383619F03C3661F0B5
:1012200014C0F201D3FC3591D3FE31912F01383631
:1012300061F4FB2DF860BF2E8B2D8460B82EF20177
:10124000D3FC3591D3FE31912F01332309F495C09E
:10125000632F70E088E690E039830E94F5093981B8
:10126000892B09F48AC0B0FC07C0F701C080D18087
:10127000C70102967C0102C0C12CD12C3E3651F42C
:10128000F8014681578160E070E02B2DC6010E9475
:101290001E076BCF3336A1F4B1FC02C077247394E0
:1012A000C8010E94160A97FD66C0C114D10429F036
:1012B000F6018083C60101966C017A9489F757C0C4
:1012C0003B3559F49201A601672DC8010E94F4072D
:1012D0002C01009709F04BC045C0C80139830E941A
:1012E0004A07398197FD47C03F3669F128F4343603
:1012F00031F1393679F12BC0333769F03537F9F0F0
:1013000026C0C114D10429F0F6018082C6010196DD
:101310006C017A9471F0C8010E94160A4C0197FD85
:1013200008C00E94ED09892B61F3B801C4010E9435
:10133000860AC114D104D9F0F601108218C0FB2D21
:10134000F062BF2E07C08B2D8061B82E03C09B2D8D
:101350009064B92E2B2DA601672DC8010E9463074A
:10136000811105C0F8018381807329F406C0B0FCA7
:10137000FCCEA394FACEAA2019F08A2D90E002C0E8
:101380008FEF9FEF0F90DF91CF911F910F91FF9003
:10139000EF90DF90CF90BF90AF909F908F907F9015
:1013A0005F904F900895F999FECF92BD81BDF89A54
:1013B000992780B50895262FF999FECF92BD81BD5A
:1013C000F89A019700B4021639F01FBA20BD0FB683
:1013D000F894FA9AF99A0FBE089591110EC18032CD
:1013E00019F089508550D0F70895FC010590061634
:1013F00021F00020D9F7C00108953197CF01089559
:10140000FC010590615070400110D8F780959095CF
:101410008E0F9F1F0895FC016150704001900110D4
:10142000D8F7809590958E0F9F1F0895CF93DF93E7
:10143000EC012B8120FF33C026FF0AC02F7B2B83BA
:101440008E819F8101969F838E838A8190E029C03F
:1014500022FF0FC0E881F9818081992787FD90954F
:10146000009719F420622B831AC03196F983E88320
:101470000EC0EA85FB85099597FF09C02B8101966F
:1014800011F480E101C080E2822B8B8308C02E81A1
:101490003F812F5F3F4F3F832E83992702C08FEFFD
:1014A0009FEFDF91CF9108950F931F93CF93DF9319
:1014B000182F092FEB018B8181FD03C08FEF9FEF68
:1014C00020C082FF10C04E815F812C813D81421778
:1014D00053077CF4E881F9819F012F5F3F4F3983E7
:1014E0002883108306C0E885F985812F0995892B0B
:1014F00029F72E813F812F5F3F4F3F832E83812F1E
:10150000902FDF91CF911F910F910895FB012381BF
:1015100020FF12C026FD10C08F3F3FEF930761F000
:1015200082832F7D206423832681378121503109D6
:1015300037832683992708958FEF9FEF0895FA0147
:10154000AA27283051F1203181F1E8946F936E7F02
:101550006E5F7F4F8F4F9F4FAF4FB1E03ED0B4E0F3
:101560003CD0670F781F891F9A1FA11D680F791F34
:101570008A1F911DA11D6A0F711D811D911DA11D45
:1015800020D009F468943F912AE0269F1124301955
:10159000305D3193DEF6CF010895462F4770405DF0
:1015A0004193B3E00FD0C9F7F6CF462F4F70405D9F
:1015B0004A3318F0495D31FD4052419302D0A9F7FA
:1015C000EACFB4E0A6959795879577956795BA95F4
:1015D000C9F700976105710508959B01AC010A2EBA
:1015E00006945795479537952795BA95C9F7620F91
:1015F000731F841F951FA01D08959927882708959C
:101600002F923F924F925F926F927F928F929F9212
:10161000AF92BF92CF92DF92EF92FF920F931F9300
:10162000CF93DF93CDB7DEB7CA1BDB0B0FB6F894B1
:10163000DEBF0FBECDBF09942A88398848885F84F1
:101640006E847D848C849B84AA84B984C884DF8062
:10165000EE80FD800C811B81AA81B981CE0FD11D46
:101660000FB6F894DEBF0FBECDBFED010895F8941C
:02167000FFCFAA
:10167200280045453130392D5350454544205452B8
:10168200415000434841524C494520414E44524545
:1016920000743A20202020202020204C494D3A007E
:1016A20056323A256425642E2564002020204C49B8
:1016B2004D3A25326400743A256400563A25642571
:1016C200642E2564002020534C4F5700444F574E40
:0C16D200002020202020202020202000CC
:00000001FF
